:020000040800F2
:100000000000022035C50008518100085381000816
:100010005581000857810008598100080000000040
:10002000000000000000000000000000918E0008A9
:100030005B81000800000000318F0008A18F0008DC
:1000400093C5000895C5000897C5000899C5000824
:100050009BC500089DC500089FC50008A1C50008F4
:10006000A3C50008A5C50008A7C50008A9C50008C4
:1000700089B5000825B60008B9B5000855B60008CE
:10008000B3C50008B5C50008B7C50008B9C5000864
:10009000BBC50008BDC50008BFC500085D810008DC
:1000A000C3C50008C5C50008C7C50008C9C5000804
:1000B000CBC50008CDC50008CFC50008D1C50008D4
:1000C000D3C50008D5C50008D7C50008D9C50008A4
:1000D000DBC50008DDC50008DFC500083DB5000828
:1000E00001AB0008E5C50008E7C50008E9C5000840
:1000F000EBC50008EDC50008EFC50008F1C5000814
:10010000F3C50008F5C50008F7C50008F9C50008E3
:10011000D9B50008FDC50008FFC5000801C60008E4
:1001200003C6000851C4000807C6000809C6000835
:100130000BC600080DC600080FC6000811C600084F
:1001400013C6000815C6000817C6000819C600081F
:100150001BC60008A1C400081FC6000825C400086B
:1001600023C6000825C6000827C6000829C60008BF
:100170002BC600082DC600082FC6000831C600088F
:1001800033C6000835C6000837C600080000000066
:10019000920E493CB10AC93C2BC3163D2EFB483D8B
:1001A000752B7B3D04A9963D80B6AF3D36BDC83D5D
:1001B0002FBCE13D73B2FA3D87CF093E8340163E26
:1001C000B5AB223EA2102F3ECF6E3B3EC2C5473E8E
:1001D0000115543E135C603E7F9A6C3ECCCF783E56
:1001E000C07D823E938E883E229A8E3E32A0943EFF
:1001F00086A09A3EE59AA03E128FA63ED47CAC3EE5
:10020000EF63B23E2A44B83E491DBE3E15EFC33EE1
:1002100053B9C93ECA7BCF3E4136D53E80E8DA3E6F
:100220004F92E03E7533E63EBBCBEB3EEA5AF13EE1
:10023000CBE0F63E275DFC3EE4E7003F3D9C033FFC
:10024000824B063F9BF5083F6B9A0B3FDA390E3F16
:10025000CDD3103F2A68133FD9F6153FC07F183F12
:10026000C6021B3FD17F1D3FCBF61F3F9967223F40
:1002700025D2243F5636273F1594293F4AEB2B3F82
:10028000DE3B2E3FBB85303FC9C8323FF304353FCC
:10029000233A373F4268393F3B8F3B3FF9AE3D3F02
:1002A00067C73F3F70D8413F01E2433F03E4453F0A
:1002B00065DE473F12D1493FF8BB4B3F029F4D3FA0
:1002C000207A4F3F3D4D513F4918533F31DB543F5A
:1002D000E595563F5348583F6AF2593F1A945B3FA1
:1002E000532D5D3F05BE5E3F2146603F97C5613F90
:1002F0005A3C633F59AA643F880F663FD86B673FFB
:100300003CBF683FA7096A3F0C4B6B3F5E836C3F65
:1003100093B26D3F9ED86E3F73F56F3F0809713FF2
:100320005213723F4714733FDD0B743F0BFA743F57
:10033000C6DE753F07BA763FC58B773FF853783FE7
:100340009812793F9DC7793F02737A3FBE147B3F75
:10035000CDAC7B3F283B7C3FC9BF7C3FAC3A7D3F67
:10036000CCAB7D3F23137E3FB0707E3F6DC47E3F9C
:10037000580E7F3F6D4E7F3FAB847F3F0FB17F3F75
:1003800097D37F3F43EC7F3F11FB7F3F0000803FCF
:1003900011FB7F3F43EC7F3F97D37F3F0FB17F3F00
:1003A000AB847F3F6D4E7F3F580E7F3F6DC47E3FD5
:1003B000B0707E3F23137E3FCCAB7D3FAC3A7D3F98
:1003C000C9BF7C3F283B7C3FCDAC7B3FBE147B3F0D
:1003D00002737A3F9DC7793F9812793FF853783F6F
:1003E000C58B773F07BA763FC6DE753F0BFA743F81
:1003F000DD0B743F4714733F5213723F0809713F7E
:1004000073F56F3F9ED86E3F93B26D3F5E836C3F36
:100410000C4B6B3FA7096A3F3CBF683FD86B673FF7
:10042000880F663F59AA643F5A3C633F97C5613FB6
:100430002146603F05BE5E3F532D5D3F1A945B3FF2
:100440006AF2593F5348583FE595563F31DB543FD8
:100450004918533F3D4D513F207A4F3F029F4D3F3A
:10046000F8BB4B3F12D1493F65DE473F03E4453FB0
:1004700001E2433F70D8413F67C73F3FF9AE3D3F80
:100480003B8F3B3F4268393F233A373FF304353FC8
:10049000C9C8323FBB85303FDE3B2E3F4AEB2B3F86
:1004A0001594293F5636273F25D2243F9967223F8E
:1004B000CBF61F3FD17F1D3FC6021B3FC07F183FB9
:1004C000D9F6153F2A68133FCDD3103FDA390E3FD6
:1004D0006B9A0B3F9BF5083F824B063F3D9C033FC9
:1004E000E4E7003F275DFC3ECBE0F63EEA5AF13EF2
:1004F000BBCBEB3E7533E63E4F92E03E80E8DA3E02
:100500004136D53ECA7BCF3E53B9C93E15EFC33EF7
:10051000491DBE3E2A44B83EEF63B23ED47CAC3E99
:10052000128FA63EE59AA03E86A09A3E32A0943E47
:10053000229A8E3E938E883EC07D823ECCCF783EFE
:100540007F9A6C3E135C603E0115543EC2C5473E27
:10055000CF6E3B3EA2102F3EB5AB223E8340163EEF
:1005600087CF093E73B2FA3D2FBCE13D36BDC83D91
:1005700080B6AF3D04A9963D752B7B3D2EFB483DD3
:100580002BC3163DB10AC93C920E493C0000000045
:10059000920E49BCB10AC9BC2BC316BD2EFB48BD87
:1005A000752B7BBD04A996BD80B6AFBD36BDC8BD59
:1005B0002FBCE1BD73B2FABD87CF09BE834016BE22
:1005C000B5AB22BEA2102FBECF6E3BBEC2C547BE8A
:1005D000011554BE135C60BE7F9A6CBECCCF78BE52
:1005E000C07D82BE938E88BE229A8EBE32A094BEFB
:1005F00086A09ABEE59AA0BE128FA6BED47CACBEE1
:10060000EF63B2BE2A44B8BE491DBEBE15EFC3BEDD
:1006100053B9C9BECA7BCFBE4136D5BE80E8DABE6B
:100620004F92E0BE7533E6BEBBCBEBBEEA5AF1BEDD
:10063000CBE0F6BE275DFCBEE4E700BF3D9C03BFF8
:10064000824B06BF9BF508BF6B9A0BBFDA390EBF12
:10065000CDD310BF2A6813BFD9F615BFC07F18BF0E
:10066000C6021BBFD17F1DBFCBF61FBF996722BF3C
:1006700025D224BF563627BF159429BF4AEB2BBF7E
:10068000DE3B2EBFBB8530BFC9C832BFF30435BFC8
:10069000233A37BF426839BF3B8F3BBFF9AE3DBFFE
:1006A00067C73FBF70D841BF01E243BF03E445BF06
:1006B00065DE47BF12D149BFF8BB4BBF029F4DBF9C
:1006C000207A4FBF3D4D51BF491853BF31DB54BF56
:1006D000E59556BF534858BF6AF259BF1A945BBF9D
:1006E000532D5DBF05BE5EBF214660BF97C561BF8C
:1006F0005A3C63BF59AA64BF880F66BFD86B67BFF7
:100700003CBF68BFA7096ABF0C4B6BBF5E836CBF61
:1007100093B26DBF9ED86EBF73F56FBF080971BFEE
:10072000521372BF471473BFDD0B74BF0BFA74BF53
:10073000C6DE75BF07BA76BFC58B77BFF85378BFE3
:10074000981279BF9DC779BF02737ABFBE147BBF71
:10075000CDAC7BBF283B7CBFC9BF7CBFAC3A7DBF63
:10076000CCAB7DBF23137EBFB0707EBF6DC47EBF98
:10077000580E7FBF6D4E7FBFAB847FBF0FB17FBF71
:1007800097D37FBF43EC7FBF11FB7FBF000080BFCB
:1007900011FB7FBF43EC7FBF97D37FBF0FB17FBFFC
:1007A000AB847FBF6D4E7FBF580E7FBF6DC47EBFD1
:1007B000B0707EBF23137EBFCCAB7DBFAC3A7DBF94
:1007C000C9BF7CBF283B7CBFCDAC7BBFBE147BBF09
:1007D00002737ABF9DC779BF981279BFF85378BF6B
:1007E000C58B77BF07BA76BFC6DE75BF0BFA74BF7D
:1007F000DD0B74BF471473BF521372BF080971BF7A
:1008000073F56FBF9ED86EBF93B26DBF5E836CBF32
:100810000C4B6BBFA7096ABF3CBF68BFD86B67BFF3
:10082000880F66BF59AA64BF5A3C63BF97C561BFB2
:10083000214660BF05BE5EBF532D5DBF1A945BBFEE
:100840006AF259BF534858BFE59556BF31DB54BFD4
:10085000491853BF3D4D51BF207A4FBF029F4DBF36
:10086000F8BB4BBF12D149BF65DE47BF03E445BFAC
:1008700001E243BF70D841BF67C73FBFF9AE3DBF7C
:100880003B8F3BBF426839BF233A37BFF30435BFC4
:10089000C9C832BFBB8530BFDE3B2EBF4AEB2BBF82
:1008A000159429BF563627BF25D224BF996722BF8A
:1008B000CBF61FBFD17F1DBFC6021BBFC07F18BFB5
:1008C000D9F615BF2A6813BFCDD310BFDA390EBFD2
:1008D0006B9A0BBF9BF508BF824B06BF3D9C03BFC5
:1008E000E4E700BF275DFCBECBE0F6BEEA5AF1BEEE
:1008F000BBCBEBBE7533E6BE4F92E0BE80E8DABEFE
:100900004136D5BECA7BCFBE53B9C9BE15EFC3BEF3
:10091000491DBEBE2A44B8BEEF63B2BED47CACBE95
:10092000128FA6BEE59AA0BE86A09ABE32A094BE43
:10093000229A8EBE938E88BEC07D82BECCCF78BEFA
:100940007F9A6CBE135C60BE011554BEC2C547BE23
:10095000CF6E3BBEA2102FBEB5AB22BE834016BEEB
:1009600087CF09BE73B2FABD2FBCE1BD36BDC8BD8D
:1009700080B6AFBD04A996BD752B7BBD2EFB48BDCF
:100980002BC316BDB10AC9BC920E49BC0000008041
:10099000180E0008B00900080000000090090008C7
:1009A000E7C40008198D00080B8D00080000000046
:1009B0003133694163746976654F626A65637400B7
:1009C00049444C4500546D725100546D7220537669
:1009D00063000000780E0008000A00089009000873
:1009E00000000000D409000839A80008198D00088B
:1009F0000B8D000829A800082BA8000800000000A3
:100A00003138426174746572794368617267654117
:100A1000736B6572003138436F6C6C6973696F6E0C
:100A200041766F6964616E6365000000780E0008AE
:100A3000150A000890090008000000002C0A0008B0
:100A40004DAA0008198D00080B8D000815A9000893
:100A500017A9000800000000000000008C0A000830
:100A6000A1AC0008198D00080B8D000891AC00089E
:100A700093AC0008000000003136436F6C6C697362
:100A8000696F6E48616E646C65720000780E0008D4
:100A9000780A00089009000800000000B80A000861
:100AA00039B10008198D00080B8D000811AD000840
:100AB00013AD000800000000780E0008C40A00080A
:100AC00090090008394879726F4D6F746F72000099
:100AD000180E0008E80A000800000000D00A00080C
:100AE000F1BA0008F3BA0008384C454453747269EF
:100AF0007000313252656164456E636F6465727374
:100B0000000000000000000000000000280B0008AA
:100B10004DBC0008198D00080B8D0008D1BB0008E2
:100B2000D3BB000800000000780E0008F20A00089D
:100B30009009000800C0C101C30302C2C60607C76E
:100B400005C5C404CC0C0DCD0FCFCE0E0ACACB0BFD
:100B5000C90908C8D81819D91BDBDA1A1EDEDF1F2D
:100B6000DD1D1CDC14D4D515D71716D6D21213D31D
:100B700011D1D010F03031F133F3F23236F6F737CD
:100B8000F53534F43CFCFD3DFF3F3EFEFA3A3BFBBD
:100B900039F9F83828E8E929EB2B2AEAEE2E2FEF6D
:100BA0002DEDEC2CE42425E527E7E62622E2E323DD
:100BB000E12120E0A06061A163A3A26266A6A7670D
:100BC000A56564A46CACAD6DAF6F6EAEAA6A6BAB7D
:100BD00069A9A86878B8B979BB7B7ABABE7E7FBFAD
:100BE0007DBDBC7CB47475B577B7B67672B2B3739D
:100BF000B17170B05090915193535292965657974D
:100C0000559594549C5C5D9D5F9F9E5E5A9A9B5B3C
:100C100099595898884849894B8B8A4A4E8E8F4FEC
:100C20008D4D4C8C4484854587474686824243835C
:100C30004181804000C1814001C0804101C08041AC
:100C400000C1814001C0804100C1814000C181409C
:100C500001C0804101C0804100C1814000C181408C
:100C600001C0804100C1814001C0804101C080417C
:100C700000C1814001C0804100C1814000C181406C
:100C800001C0804100C1814001C0804101C080415C
:100C900000C1814000C1814001C0804101C080414C
:100CA00000C1814001C0804100C1814000C181403C
:100CB00001C0804101C0804100C1814000C181402C
:100CC00001C0804100C1814001C0804101C080411C
:100CD00000C1814000C1814001C0804101C080410C
:100CE00000C1814001C0804100C1814000C18140FC
:100CF00001C0804100C1814001C0804101C08041EC
:100D000000C1814001C0804100C1814000C18140DB
:100D100001C0804101C0804100C1814000C18140CB
:100D200001C0804100C1814001C0804101C08041BB
:100D300000C181400000000000000000580D0008C4
:100D40007DBD00087FBD0008313155415254746F9C
:100D50005253343835000000180E0008480D0008C2
:100D6000180E0008680D0008313255415254757351
:100D70006572496E6974000000000000600D000893
:100D8000BBBE0008BDBE000800000000BC0D00088E
:100D9000F9C20008198D00080B8D0008EBC200088D
:100DA000EDC200080000000031365553425573650E
:100DB00072496E746572666163650000780E0008A2
:100DC000A80D0008900900086765744261744368C3
:100DD000617267650073656E736F725461736B0047
:100DE0006879726F4D6F746F725461736B005573D5
:100DF000657255415254746F55534200436F6C6C89
:100E00006973696F6E48616E646C65720000000002
:100E100000000000400E0008E9CA0008FDCA0008F2
:100E200009D400080DD4000831CB0008A5CA000879
:100E300019CB00085DCB0008DDCA000800000000E7
:100E4000780E00084C0E0008A00F00084E31305FED
:100E50005F637878616269763131375F5F636C61B7
:100E600073735F747970655F696E666F450000002B
:100E700000000000A00E00089DD10008B1D10008BC
:100E800009D400080DD4000831CB0008A5CA000819
:100E900091D2000809D20008CDD10008000000005E
:100EA000780E0008AC0E0008400E00084E31305F8E
:100EB0005F637878616269763132305F5F73695F52
:100EC000636C6173735F747970655F696E666F459B
:100ED000000000004E31305F5F63787861626976B0
:100EE0003131355F5F666F726365645F756E776918
:100EF0006E644500180E0008D40E0008180E000895
:100F0000700F00084E31305F5F63787861626976F8
:100F10003131395F5F666F726569676E5F657863EF
:100F2000657074696F6E45007374643A3A657863EE
:100F3000657074696F6E00007374643A3A6261643C
:100F40005F657863657074696F6E0000180E000845
:100F5000040F00080000000000000000940F0008CB
:100F6000BDD20008C9D20008C1D2000800000000AC
:100F7000537439657863657074696F6E00000000A2
:100F8000537431336261645F657863657074696F4F
:100F90006E000000780E0008800F0008FC0E0008AC
:100FA000180E0008A80F0008537439747970655F33
:100FB000696E666F000000004300000028000020FA
:1080000010B5054C237833B9044B13B10448AFF3D2
:1080100000800123237010BD8808002000000000AC
:1080200058F80008084B10B51BB108480849AFF3D1
:1080300000800848036803B910BD074B002BFBD034
:10804000BDE81040184700BF0000000058F80008C5
:108050008C08002084080020000000009FED1B7A9F
:108060001B4AF5EE007AE0EE077ABDEEE77AF5EE10
:10807000C07A17EE103AF1EE10FA48BF03F1FF3361
:1080800007EE103AB8EEC70A77EEC07A9FED110AF4
:1080900067EE807ABCEEE77A17EE103AC3F3080376
:1080A00007EE103AB8EE470A02EB830177EEC07A8A
:1080B00091ED010AB7EE007A37EE677A27EE800A73
:1080C000D1ED007AA7EE270A704700BF83F9223E60
:1080D0008C010008000000449FED1A7A1A4A20EE35
:1080E000077AB5EEC00AFDEEC77AF1EE10FA42BF8C
:1080F00017EE903A03F1FF3307EE903AF8EEE77A85
:1081000037EE677ADFED117A67EE277ABCEEE77A11
:1081100017EE103AC3F3080307EE103AB8EE470A19
:1081200002EB830177EEC07A91ED010AB7EE007A97
:1081300037EE677A27EE800AD1ED007AA7EE270A9C
:10814000704700BF83F9223E8C0100080000004404
:108150007047FEE7FEE77047FEE770477047000094
:1081600040F0BF60024B40F40030D860704700BF61
:1081700000ED00E0C278037810B512B3164AD1685A
:108180004278C943C1F30221C1F10404E4B2A24020
:10819000D4B20F220A4181780A40224303F160439E
:1081A00003F561431201D2B283F800230378012260
:1081B000590903F01F0302FA03F3084A42F8213079
:1081C00010BD5A09012103F01F03994002F1200359
:1081D000024A42F8231010BD00ED00E000E100E08B
:1081E000436823F040720B6822F4807213430A79CB
:1081F00043EA02234360CA680B691A438B6810B5CF
:108200001A438468084B234013434A7943EA4203E4
:108210008360C36A23F470020B7D013BDBB242EA48
:108220000353C36210BD00BFFDF7FFC0002303600E
:10823000037143718360C360036101230375704759
:1082400010B5074C074B6268134090E806001143D5
:1082500082681143C2680A431343636010BD00BFC4
:1082600000230140E030FCFF002303604360836093
:10827000C3607047836811B143F0010301E023F04C
:10828000010383607047092970B50CD9A1F10A0474
:10829000C66804EB44040725A54026EA0505A3406B
:1082A0002B43C36009E0056901EB41060724B44094
:1082B00025EA0404B34023430361062A0BD8013A9C
:1082C000446B02EB82021F23934024EA0303914094
:1082D0001943416370BD0C2A0BD8073A046B02EBBB
:1082E00082021F23934024EA030391401943016350
:1082F00070BD0D3AC46A02EB82021F23934024EA48
:10830000030391401943C16270BD836843F0804309
:1083100083607047C06C80B2704700000268134BE6
:1083200010B51340CC680A6814434A6914438A693B
:108330001443CA6914430A6A14434A6A14438A6A92
:1083400014434A6B14438A6B22431343036043690B
:108350000C6B23F00702CB6A2343134343610B6981
:1083600043604B6883608B68C36010BD3F801CF026
:108370000023036043608360C360036143618361E2
:10838000C361036243628362C362036343638363C3
:108390007047036811B143F0010301E023F00103CA
:1083A0000360704741607047006800F0010070474B
:1083B0000B0611D543694AB143F08003802943611C
:1083C00014D0036801F01E0119430EE023F080036E
:1083D0008029436104D17047802907D0002AF0D159
:1083E000036801F01E0123EA0101016070470000EB
:1083F00010B5084A084B094CA04294BF18461046D5
:1084000011F0005F21F0F02121F0821114BFC16052
:10841000816010BD00640240006002400F640240B1
:1084200082790168037970B5002A29D0194A156844
:10843000CE4335401560546803F1804303F59E3305
:10844000344054601C682143196003689468DD431C
:108450002C409460D1682940D160417910290BBF2C
:10846000916801F18042194302F59E3205BF916087
:10847000D16811680B4316BF0B43D360136070BD06
:1084800003F1804303F59E331A6822EA0101196063
:1084900070BD00BF003C0140054B1A685B6903409A
:1084A00004D0104214BF01200020704718467047C6
:1084B000003C0140014B5861704700BF003C014047
:1084C000F0B50E6800220123934003EA060E9E4594
:1084D0002AD1550003230468AB40DB431C400460F1
:1084E0000C79076804FA05FC013C4CEA0707012CEB
:1084F000076011D884684F791C4084608468AF405D
:1085000027438760446824EA0E0444608C794768F6
:108510009440A4B23C434460C4682340C360CB7918
:10852000C468AB402343C3600132102ACBD1F0BDF5
:108530000369194214BF012000207047018370476E
:108540004183704701F00703C90800EB810010B5B3
:108550009B00046A0F21994024EA01010162016A2B
:108560009A401143016210BD1D4A936803F00C0349
:10857000042B10B503D0082B03D01A4B18E01A4B6C
:1085800016E05168536811F4800F03F03F035168FF
:1085900014BF154A134AB2FBF3F3114A5268C2F3EF
:1085A0000142C1F3881101324B435200B3FBF2F395
:1085B0000B4A036093680D49C3F30313CC5C036853
:1085C000E34043609468C4F382240C5D23FA04F40E
:1085D00084609268C2F342328A5CD340C36010BDAB
:1085E000003802400024F40000127A000400002049
:1085F000044B1A6B09B1104301E022EA0000186332
:10860000704700BF00380240044B1A6C09B1104398
:1086100001E022EA00001864704700BF0038024001
:10862000044B5A6C09B1104301E022EA000058647F
:10863000704700BF00380240044B1A6A09B110436A
:1086400001E022EA00001862704700BF00380240D3
:10865000044B5A6A09B1104301E022EA0000586253
:10866000704700BF0038024001F0030301F0FC0135
:1086700001F1804101F59C3110B59B008C680F22FF
:108680009A4024EA02028A608A68984002438A601B
:1086900010BD000008B5474B984205D101200146A6
:1086A000FFF7D6FF01203DE0B0F1804F05D101205A
:1086B0000146FFF7C1FF012076E03F4B984205D10C
:1086C00002200121FFF7B8FF02206DE03B4B9842EA
:1086D00005D104200121FFF7AFFF042064E0384BEF
:1086E000984205D108200121FFF7A6FF08205BE092
:1086F000344B984205D110200121FFF79DFF102037
:1087000052E0314B984205D120200121FFF794FF20
:10871000202049E02D4B984209D102200121FFF78A
:1087200097FF02200021BDE80840FFF791BF284BCA
:10873000984207D14FF480300121FFF789FF4FF4B1
:108740008030EFE7234B984207D14FF400300121EE
:10875000FFF77EFF4FF40030E4E71F4B984207D14C
:108760004FF480200121FFF773FF4FF48020D9E7F9
:108770001A4B984205D140200121FFF75DFF4020B0
:1087800012E0174B984205D180200121FFF754FFDA
:10879000802009E0134B98420BD14FF480700121E7
:1087A000FFF74AFF4FF480700021BDE80840FFF753
:1087B00043BF08BD00000140000400400008004025
:1087C000000C004000100040001400400004014074
:1087D00000400140004401400048014000180040B2
:1087E000001C0040002000401C4A038890429BB2BD
:1087F00012D002F5806290420ED0B0F1804F0BD0C3
:10880000A2F58032904207D002F58062904203D0F8
:1088100002F58062904203D14A8823F0700313432B
:108820000F4A904208D002F5806290421FBF23F4A5
:1088300040730A899BB2134303804B68C3620B8861
:108840000385064B984203D003F58063984201D11B
:108850008B7A038601238382704700BF00000140AA
:10886000001000404FF0FF3343600023038003817A
:1088700043808372704741627047406A7047038843
:1088800019B19BB243F0010303E023F001031B0481
:108890001B0C038070470000038C23F001031B04B2
:1088A0001B0C0384038C70B58488028B0E8822F025
:1088B00073021204120C23F0020516434B888A89B6
:1088C0002D0413430F4A2D0C2B439042A4B29BB2AC
:1088D00003D002F5806290420ED1CA894D8A23F0FE
:1088E000080313438A8823F0040313430A8A24F4F9
:1088F000407415432C43A4B28A6884800683426383
:10890000038470BD00000140038C23F010031B049E
:108910001B0C0384038C30B58588028B0C8822F4F1
:10892000E6421204120C42EA042223F0200394B21D
:108930001B048A891B0C43EA02134A8843EA021388
:10894000124A9042ADB29BB203D002F580629042CF
:1089500015D123F08003CA899BB243EA02124FF675
:10896000BF7313408A8843EA02130A8A25F44065DC
:1089700045EA82054A8A45EA82059BB2ADB28A6819
:10898000858004838263038430BD00BF0000014002
:10899000038C23F480731B041B0C0384038C30B5FD
:1089A0008488828B0D8822F073021204120C23F447
:1089B000007315431B048A891B0C43EA02234A886F
:1089C00043EA0223124A9042A4B29BB203D002F5BA
:1089D0008062904215D123F40063CA899BB243EAB6
:1089E00002224FF6FF3313408A8843EA02230A8AA1
:1089F00024F4405444EA02144A8A44EA02149BB222
:108A0000A4B28A6884808583C263038430BD00BFBA
:108A1000000001407FB5038ACA889BB223F440530B
:108A20001343038283890E469BB223F4B053098912
:108A300023F00C02B3880B4371890B439BB21343A1
:108A40008381838AB2899BB223F440731343838268
:108A500004466846FFF788FD1A4B9C4203D003F595
:108A600080639C4201D1039D00E0029DA38931688F
:108A70001BB2002B4FF0190202FB05F2B4BF4D00F0
:108A80008D00B2FBF5F5A2896426B5FBF6F0000176
:108A9000010912B2002A06FB1153ADBF1A01D90019
:108AA00032313232B5BFB1FBF6F2B2FBF6F302F06F
:108AB000070203F00F03B4BF1043184380B22081B4
:108AC00004B070BD00100140838919B19BB243F41A
:108AD000005303E023F400531B041B0C83817047F5
:108AE0008088C0F308007047838A9BB20AB119439B
:108AF00001E023EA01018182704710B5C1F34214FD
:108B0000012301F01F01012C03FA01F301D10C3004
:108B100003E0022C0CBF1030143012B10268134372
:108B200002E0026822EA0303036010BD012310B5CE
:108B3000C1F3421401F01F029C4203FA02F201D178
:108B4000838903E0022C0CBF038A838A9BB2134003
:108B5000028892B23BB1090A01238B40134214BF31
:108B60000120002010BD184610BD090A01238B40CA
:108B7000DB439BB203807047374AD2F8883043F416
:108B80007003C2F88830354B1A68002142F00102A8
:108B90001A6099601A6822F0847222F480321A6096
:108BA0002F4A5A601A6882B022F480221A60D96073
:108BB000009101911A6842F480321A60274B1A68BA
:108BC00002F400320192009A01320092019A1AB91D
:108BD000009AB2F5A06FF1D11B6813F4003318BFEF
:108BE00001230193019B012B05D01B4B4FF0006229
:108BF0009A6002B07047194B1A491A6C42F08052C1
:108C00001A640A6842F480420A609A689A609A6814
:108C100042F420429A609A6842F4A0529A60124A42
:108C20005A601A6842F080721A6019680B4A89010A
:108C3000FBD50E4B40F205611960936823F00303E6
:108C40009360936843F002039360044B9B6803F0C6
:108C50000C03082BF9D1C8E700ED00E00038024012
:108C6000103000240070004008544007003C0240CF
:108C7000704700F0F9BE0000DFED067A20EE270A0B
:108C8000DFED057A80EE270AFCEEC07A17EE900A37
:108C9000704700BF0000FA4400007A44DFED047A18
:108CA00020EE270AFCEEC07A17EE900A704700BF4C
:108CB0000000FA44034A0449137841F823000133C1
:108CC00013707047A4080020A808002003681B68E0
:108CD0001847000037B58DB204460092021D01927C
:108CE00019462A460648234600F0A4FD01280546F9
:108CF00002D12046FFF7DEFF284603B030BD00BF9B
:108D0000CD8C0008406800F06DBE00220272FFF7B3
:108D1000F9BF406801F0E0B810B50446FFF7F9FF6D
:108D20000123237210BD084601F03AB808461146E7
:108D300000F0E4BF024A026000220272704700BFE6
:108D4000A009000810B5044600F0CEFE204605F04C
:108D500061FE044600F060FF204610BD10B50446D9
:108D600040B100F0C1FE204605F05CFEBDE81040B9
:108D700000F052BF10BD00F1080343604FF0FF3216
:108D8000C3600361002382600360704700230361B6
:108D9000704743684B609A688A609A68516099602E
:108DA000036808610133036070470A68531C30B5DB
:108DB00001D1036907E000F108035C68256895426A
:108DC00001D82346F9E75A684A6091608B60596080
:108DD000036808610133036030BD4168826803693C
:108DE0008A60826851605968814208BF5A600022D7
:108DF0000261186801381860704700000A4B1B6850
:108E0000013308D04FF0200383F31188BFF36F8F35
:108E1000BFF34F8FFEE74FF0200383F31188BFF3BA
:108E20006F8FBFF34F8FFEE71800002006480068E1
:108E3000006880F3088862B661B6BFF34F8FBFF356
:108E40006F8F00DF00BF000008ED00E0DFF80C00CE
:108E5000016841F4700101607047000088ED00E096
:108E60004FF0807340F8043C074B40F80C3C21F075
:108E700001016FF0020340F8081C40F8202C40F874
:108E8000243C4438704700BFFD8D000800000000FE
:108E9000074B19680868B0E8F04F80F30988BFF302
:108EA0006F8F4FF0000080F311887047AFF30080A0
:108EB000100A0020AFF30080AFF30080AFF3008012
:108EC0004FF0200383F31188BFF36F8FBFF34F8FF1
:108ED0000A4A13680133012B13600DD1084B1B683C
:108EE00013F0FF0F08D04FF0200383F31188BFF376
:108EF0006F8FBFF34F8FFEE7704700BF1800002051
:108F000004ED00E0084A136843B94FF0200383F3EF
:108F10001188BFF36F8FBFF34F8FFEE7013B1360E4
:108F20000BB983F31188704718000020000000007F
:108F3000EFF30980BFF36F8F154B1A681EF0100F07
:108F400008BF20ED108A20E9F04F10604DF8043D75
:108F50004FF0200080F31188BFF34F8FBFF36F8F66
:108F600000F080FF4FF0000080F3118808BC196802
:108F70000868B0E8F04F1EF0100F08BFB0EC108A80
:108F800080F30988BFF36F8F704700BFAFF3008095
:108F9000100A0020AFF30080AFF30080AFF3008031
:108FA00008B54FF0200383F31188BFF36F8FBFF331
:108FB0004F8F00F0A7FD18B1034B4FF080521A609D
:108FC000002383F3118808BD04ED00E0064B4FF445
:108FD000FA621B68B3FBF2F3044A013B1360044BD3
:108FE00007221A60704700BF1400002014E000E060
:108FF00010E000E02E4B07B519682E4A914208D1C7
:109000004FF0200383F31188BFF36F8FBFF34F8FAF
:10901000FEE71A68284B9A4208D14FF0200383F3E9
:109020001188BFF36F8FBFF34F8FFEE7234B1A7882
:10903000D2B20192FF221A701B78214ADBB28DF85E
:1090400003309DF8033003F0200313701D4A0723FB
:1090500013609DF80310090603F1FF3007D59DF852
:1090600003305B00DBB28DF803300346F1E71B02EF
:1090700003F4E0631360019B104ADBB21370124BE0
:109080001A6842F470021A601A6842F070421A605C
:10909000FFF79CFF0D4B00221A60FFF7D7FE0C4A2A
:1090A000136843F040431360FFF7C0FEFFF7A6FECE
:1090B00000ED00E071C20F4170C20F4100E400E01A
:1090C000200900202409002020ED00E018000020E5
:1090D00034EF00E0EFF305830F2B0ED9104A9B5CB1
:1090E000104A12789A4208D94FF0200383F311886E
:1090F000BFF36F8FBFF34F8FFEE70B4B0B4A1B681D
:10910000126803F4E063934208D94FF0200383F31D
:109110001188BFF36F8FBFF34F8FFEE7704700BF1B
:10912000F0E300E0200900200CED00E0240900201D
:1091300070B51546026C866B044632B905682DBBC6
:10914000406801F05DF8656027E065B9806805F06A
:1091500003FFA268236C13446268A360934217D391
:109160002368A36014E0C06805F0F6FE236CE26893
:1091700021685B421A448A42E2603EBF62689B18E3
:10918000E360022D06D13EB1013E03E0104604E04B
:10919000284602E0002000E030460136A66370BD9C
:1091A000026C10B503466AB1C4681444C4604068D8
:1091B000844224BF1868D860BDE810400846D968CA
:1091C00005F0CABE10BD38B50446FFF779FE94F825
:1091D0004550EDB26BB2002B0ADD636A43B104F176
:1091E000240000F01BFF08B100F0A8FF013DF0E7EC
:1091F000FF2384F84530FFF785FEFFF761FE94F802
:109200004450EDB26BB2002B0ADD236943B104F187
:10921000100000F003FF08B100F090FF013DF0E7FF
:10922000FF2384F84430BDE83840FFF76BBE0000F0
:1092300038B50D46044640B94FF0200383F311883A
:10924000BFF36F8FBFF34F8FFEE7FFF739FE206C40
:10925000E36B2268A2604343D1181B1A1344616078
:10926000E3600021FF23A16384F8443084F8453093
:109270007DB92369ABB104F1100000F0CFFE80B1DD
:109280000A4B4FF080521A60BFF34F8FBFF36F8FBE
:1092900007E004F11000FFF76EFD04F12400FFF772
:1092A0006AFDFFF72FFE012038BD00BF04ED00E08E
:1092B000F8B50D461746064640B94FF0200383F334
:1092C0001188BFF36F8FBFF34F8FFEE709B148439B
:1092D00000E008465030FFF735FD044668B10DB98F
:1092E000206002E000F150030360E663256420463D
:1092F0000121FFF79DFF84F84C702046F8BD000067
:109300002DE9FF41884601921F46044640B94FF0BF
:10931000200383F31188BFF36F8FBFF34F8FFEE7F6
:1093200051B9036C43B14FF0200383F31188BFF3AD
:109330006F8FBFF34F8FFEE7022F0BD1E36B012B33
:1093400008D04FF0200383F31188BFF36F8FBFF372
:109350004F8FFEE700F0FEFE10B9019E0EB16FE0E8
:109360000026FFF7ADFDA26BE36B9A4201D3022FFB
:1093700017D1204641463A46FFF7DAFE636A1BB131
:1093800004F1240000F04AFE38B1334B4FF0805214
:109390001A60BFF34F8FBFF36F8FFFF7B3FD01204C
:1093A00057E0019D15B9FFF7ADFD47E016B902A8DA
:1093B00000F074FEFFF7A6FD00F096FBFFF780FDBE
:1093C00094F84430FF2B04BF002384F8443094F811
:1093D0004530FF2B04BF002384F84530FFF792FD92
:1093E00002A801A900F070FE18BBFFF769FDA66B8B
:1093F000E56BFFF787FDAE4215D104F1100001992E
:1094000000F0D2FD2046FFF7DEFE00F005FC08B1BB
:109410000126A6E7104B4FF080521A60BFF34F8F22
:10942000BFF36F8FF4E72046FFF7CDFE00F0F4FBAB
:10943000EEE72046FFF7C7FE00F0EEFB002008E055
:109440004FF0200383F31188BFF36F8FBFF34F8F6B
:10945000FEE704B0BDE8F08104ED00E010B502467F
:1094600000210120FFF724FF044638B100214160AC
:109470000160C1600A460B46FFF742FF204610BD5F
:109480002DE9F843884691461F46044640B94FF0FF
:10949000200383F31188BFF36F8FBFF34F8FFEE775
:1094A00051B9036C43B14FF0200383F31188BFF32C
:1094B0006F8FBFF34F8FFEE7022F0BD1E36B012BB2
:1094C00008D04FF0200383F31188BFF36F8FBFF3F1
:1094D0004F8FFEE7FFF7FEFDEFF311864FF02003FD
:1094E00083F31188BFF36F8FBFF34F8FA26BE36BD2
:1094F0009A4201D3022F1DD194F845502046EDB277
:1095000041463A46FFF714FEFF2D0DD1636A7BB149
:1095100004F1240000F082FD50B1B9F1000F07D032
:109520000120C9F8000006E00135EDB284F845508D
:10953000012000E0002086F31188BDE8F8830000D8
:109540002DE9FF410F4601929846044640B94FF07D
:10955000200383F31188BFF36F8FBFF34F8FFEE7B4
:1095600051B9036C43B14FF0200383F31188BFF36B
:109570006F8FBFF34F8FFEE700F0ECFD10B9019E37
:109580000EB189E00026FFF79BFCA56B3DB320469A
:109590003946E668FFF704FEB8F1000F0BD12368E7
:1095A000013DA56313B900F07BFE6060236993B1B0
:1095B00004F1100004E0636AE66063B104F1240082
:1095C00000F02CFD38B13A4B4FF080521A60BFF3D7
:1095D0004F8FBFF36F8FFFF795FC012065E0019D72
:1095E00015B9FFF78FFC55E016B902A800F056FD3B
:1095F000FFF788FC00F078FAFFF762FC94F844303B
:10960000FF2B04BF002384F8443094F84530FF2B2F
:1096100004BF002384F84530FFF774FC02A801A9B9
:1096200000F052FD50BBFFF74BFCA56BFFF76AFC47
:10963000F5B9236833B9FFF743FC606800F09AFD81
:10964000FFF760FC04F12400019900F0ADFC204616
:10965000FFF7B9FD00F0E0FA08B1012693E7144BDB
:109660004FF080521A60BFF34F8FBFF36F8FF4E754
:109670002046FFF7A8FD00F0CFFAEEE72046FFF7FF
:10968000A2FD00F0C9FAFFF71BFCA56BFFF73AFC3F
:10969000002DE2D1284608E04FF0200383F3118823
:1096A000BFF36F8FBFF34F8FFEE704B0BDE8F081CB
:1096B00004ED00E010B5044640B94FF0200383F3F9
:1096C0001188BFF36F8FBFF34F8FFEE7FFF7F8FBF3
:1096D000A46BFFF717FC204610BD000030B5002337
:1096E000064C54F83350DA0025B944F83310A31867
:1096F000586030BD0133082BF2D130BD280900205D
:1097000070B504460E461546FFF7DAFB94F8443070
:10971000FF2B04BF002384F8443094F84530FF2B1E
:1097200004BF002384F84530FFF7ECFBA36B2BB993
:1097300004F1240031462A4600F050FC2046BDE8E2
:109740007040FFF740BD000040B94FF0200383F3A5
:109750001188BFF36F8FBFF34F8FFEE74269064B4F
:109760009A4207D1806A054B984203D0B0FA80F044
:109770004009704700207047500A0020140A00205A
:10978000064A13681968064B11B94FF0FF3203E01F
:109790001268D268D26852681A6070476C0900205B
:1097A0002C0A0020F8B51C4B1C4D1E680446286886
:1097B00004300F46FFF711FB2B4640B92A68184DBD
:1097C000D16A286801228A4020EA02022A60621CCB
:1097D00007D137B1196813480431BDE8F840FFF7E5
:1097E000D8BA34441B680D4A5C60B44207D20E4BB1
:1097F00018681168BDE8F8400431FFF7D6BA0B4B82
:10980000186811680431FFF7D0FA094B1A689442BE
:1098100038BF1C60F8BD00BF280A0020100A0020D5
:10982000640A0020500A00208C0900206C090020E6
:109830002C0A00202DE9F84F9500814628460E4657
:1098400098460B9FFFF77EFA8246002800F0A98019
:109850005820FFF777FA044688B1C0F830A02A46AE
:109860005046A52105F012FCA5F1040A256BAA4477
:10987000731E2AF0070A04F13302093605E0504648
:10988000FFF76CFA8DE0B34207D013F8011F02F81E
:10989000011F93F900100029F5D10A9D042D28BF5E
:1098A00004254FF0000B261DE562A564304684F8C0
:1098B0003DB0C4F84CB0FFF769FAC5F1050504F1F5
:1098C0001800FFF763FAC4F850B02461A561646220
:1098D00084F854B0504649464246FFF7C1FA20602A
:1098E00007B13C60FFF7ECFA304B314F1A68DFF8F4
:1098F000EC8001321A603D6815BB3C601B68012B8F
:1099000027D108EB05001435FFF735FA642DF8D19F
:10991000DFF8CC90274D4846FFF72DFA2846FFF791
:109920002AFA2548FFF727FA2448FFF724FA2448A3
:10993000FFF721FA234BC3F80090234B1D6008E08A
:10994000224B1B682BB93B68DA6AE36A9A4298BFDC
:109950003C601F4A1F49136801331360E26A2364A5
:1099600001250B6805FA02F0034314200B6000FB8D
:1099700002803146FFF70DFAFFF7C4FA134B1B685C
:1099800063B13B68DA6AE36A9A4207D2124B4FF03E
:1099900080521A60BFF34F8FBFF36F8F2846BDE828
:1099A000F88F4FF0FF30BDE8F88F00BF340A002079
:1099B000100A0020380A0020140A0020F8090020AC
:1099C000500A00206C0900208C090020700900203A
:1099D000300A0020640A002004ED00E09409002011
:1099E0007809002070B5044640B94FF0200383F396
:1099F0001188BFF36F8FBFF34F8FFEE7164D2B68B3
:109A0000984228D0FFF75CFA2046FFF79DFEF0B1A0
:109A1000261D3046FFF7E1F91048E16A026801238C
:109A20008B40134303600E4B142000FB0130314682
:109A3000FFF7AFF92B68E26ADB6A9A4207D3094B5A
:109A40004FF080521A60BFF34F8FBFF36F8FBDE8A6
:109A50007040FFF757BA70BD100A0020640A00205A
:109A60009409002004ED00E013B5194B0193002484
:109A700000941848184982222346FFF7DBFE01288C
:109A800018D100F065FD012814D14FF0200383F3B5
:109A90001188BFF36F8FBFF34F8F104B4FF0FF3222
:109AA0001A600F4B18600F4B1C6002B0BDE81040ED
:109AB000FFF7A0BA013008D14FF0200383F31188DB
:109AC000BFF36F8FBFF34F8FFEE702B010BD00BF33
:109AD0004C0A0020F19D0008C00900082C0A002053
:109AE00070090020280A0020024A1368013313601D
:109AF000704700BF74090020014B1868704700BF11
:109B0000280A0020394B1B682DE9F047002B3FD174
:109B1000374B1D6801351D60BDB9364B1A68126898
:109B200042B14FF0200383F31188BFF36F8FBFF36F
:109B30004F8FFEE7304A19681068186011602F4A8D
:109B4000136801331360FFF71BFE2D4FDFF8C08051
:109B50003B68DFF8C0909D424FF000040DD3254BC9
:109B60001A68126812B94FF0FF3305E01B68DB6812
:109B7000DE6873689D4211D23B60D9F80030DA6A22
:109B80001423534358F80330022B28BF012425E047
:109B90001C4A13680133136000241FE006F1040A15
:109BA0005046FFF71AF9B36A1BB106F11800FFF728
:109BB00014F91548F16A026801238B4013430360CE
:109BC000142000FB01805146FFF7E3F8D9F800307C
:109BD000F26ADB6A9A4228BF0124C0E70B4B1B687C
:109BE000002B18BF01242046BDE8F087740900202F
:109BF000280A00206C0900208C0900206809002038
:109C00002C0A002090090020640A0020680A002025
:109C100094090020100A002070B52F4C236843B926
:109C20004FF0200383F31188BFF36F8FBFF34F8F83
:109C3000FEE7FFF745F92368013B236024680CB178
:109C4000002445E0254B1B68002BF9D0244B1A68F3
:109C50000AB3DB68DC68261D04F11800FFF7BDF8C5
:109C60003046FFF7BAF81F49E26A0B68012505FA8A
:109C700002F003430B601C4B142000FB0230314602
:109C8000FFF787F8194BE26A1B68DB6A9A4224BF28
:109C9000174B1D60DAE70CB1FFF772FD154B1C681E
:109CA0001D4644B1FFF72EFF10B1114B01221A607F
:109CB000013CF7D12C600E4B1B68002BC0D00E4B23
:109CC0004FF080521A60BFF34F8FBFF36F8F0124A4
:109CD000FFF718F9204670BD74090020340A0020EF
:109CE000140A0020640A002094090020100A0020B1
:109CF000680A00209009002004ED00E070B50C46D1
:109D0000064640B94FF0200383F31188BFF36F8FED
:109D1000BFF34F8FFEE741B94FF0200383F3118863
:109D2000BFF36F8FBFF34F8FFEE71A4B1D6845B12E
:109D30004FF0200383F31188BFF36F8FBFF34F8F72
:109D4000FEE7FFF7D1FE144B18683368984203EB27
:109D5000040102D2994207D201E0994206D381421E
:109D600094BF0023012302E02B4600E00123316071
:109D70001BB1081A0021FFF715FDFFF74DFF38B999
:109D8000064B4FF080521A60BFF34F8FBFF36F8FB7
:109D900070BD00BF74090020280A002004ED00E017
:109DA00038B5054640B9104B4FF080521A60BFF3EA
:109DB0004F8FBFF36F8F38BD0C4B1C6844B14FF011
:109DC000200383F31188BFF36F8FBFF34F8FFEE73C
:109DD000FFF78AFE28462146FFF7E4FCFFF71CFF49
:109DE0000028E0D038BD00BF04ED00E07409002079
:109DF00008B5174C2368F3B1164DFFF775FE2E68B2
:109E0000FFF70AFF002EF4D0FFF75AF8EB68DD6881
:109E1000281DFEF7E2FF104A1368013B1360236818
:109E2000013B2360FFF76EF8286BFEF797FF28468B
:109E3000FEF794FFDDE7094B1B68012BD9D9084BCE
:109E40004FF080521A60BFF34F8FBFF36F8FD0E790
:109E50000C0A0020F8090020340A00209409002090
:109E600004ED00E0174B1A68174B10B50AB1012238
:109E700025E01A60154B1B68B3FA83F3DBB2C3F11C
:109E80001F03142212495A4388188C5844B94FF0C2
:109E9000200383F31188BFF36F8FBFF34F8FFEE76B
:109EA00044680832646844600A44944204BF6268AB
:109EB0004260142202FB03135B68DA68054B1A60E8
:109EC00010BD00BF74090020680A0020640A002049
:109ED00094090020100A002070B504462A4EFEF7AF
:109EE000EFFF04B93468251D2846FEF776FF60B9F8
:109EF000E06A264A14234343D35833B92449012343
:109F00000A68834022EA03030B60A36A1BB104F1D1
:109F10001800FEF762FF29461E48FEF73AFFFEF7DB
:109F2000F1FF1D4B1A681D462AB1FEF7C9FFFFF766
:109F300027FCFEF7E7FF33689C4223D12B68A3B1CF
:109F4000164B1B6843B14FF0200383F31188BFF316
:109F50006F8FBFF34F8FFEE7114B4FF080521A60A7
:109F6000BFF34F8FBFF36F8F70BD0E4A0949126860
:109F70000968914202D1044A136070BDBDE8704087
:109F8000FFF770BF70BD00BF100A002094090020C9
:109F9000640A0020500A0020700900207409002083
:109FA00004ED00E0340A002010B50C4640B94FF033
:109FB000200383F31188BFF36F8FBFF34F8FFEE74A
:109FC000054B19681831FEF7F0FE20460121BDE867
:109FD0001040FFF7E7BB00BF100A002038B50D4660
:109FE000144640B94FF0200383F31188BFF36F8FFD
:109FF000BFF34F8FFEE7084B19681831FEF7C9FE13
:10A00000002C08BF2846214618BF4FF0FF30BDE89E
:10A010003840FFF7C7BB00BF100A002038B5C3683F
:10A02000DC6844B94FF0200383F31188BFF36F8FCE
:10A03000BFF34F8FFEE704F118052846FEF7CDFE6B
:10A04000104B1B687BB9251D2846FEF7C6FE0E483F
:10A05000E16A026801238B40134303600B4B142019
:10A0600000FB013000E00A482946FEF792FE094B4A
:10A07000E26A1B68DB6A9A4283BF074B01201860C3
:10A08000002038BD74090020640A002094090020D3
:10A09000140A0020100A0020680A002040B94FF07E
:10A0A000200383F31188BFF36F8FBFF34F8FFEE759
:10A0B000034B1B680360034B1B684360704700BF82
:10A0C00068090020280A002038B50D46044640B92A
:10A0D0004FF0200383F31188BFF36F8FBFF34F8FCF
:10A0E000FEE741B94FF0200383F31188BFF36F8F70
:10A0F000BFF34F8FFEE7FEF7E3FE0E4B19682B68A8
:10A100005A1C10D00C4A106822689042626801D034
:10A1100091420AD2881A984207D2521A13442B60ED
:10A120002046FFF7BBFF002400E00124FEF7EAFE13
:10A13000204638BD280A002068090020014B012272
:10A140001A607047680A0020014B1868704700BF0A
:10A15000100A0020054B1B6833B1054B1B68002B10
:10A160000CBF0220002070470120704770090020BA
:10A17000740900202DE9F0410446002838D01D4D17
:10A18000C36A2A68D26A934232D282691A4E002A7E
:10A19000A1BF2A68D26AC2F105028261142742690E
:10A1A00007FB03639A4220D100F104084046FEF702
:10A1B00014FE124B48B9E06A4743F2592AB91968AC
:10A1C0000122824021EA02021A602A68D26AE2620F
:10A1D00001201C68904020431860142000FB02609E
:10A1E0004146BDE8F041FEF7D4BD2B68DB6AC3628F
:10A1F000BDE8F081100A002094090020640A0020C4
:10A2000070B5044608B9002070BD224B1B68984207
:10A2100008D04FF0200383F31188BFF36F8FBFF393
:10A220004F8FFEE7C36C43B94FF0200383F31188CF
:10A23000BFF36F8FBFF34F8FFEE7C16A826C013BA4
:10A240009142C364DFD0002BDDD1051D2846FEF707
:10A25000C4FD1149114A50B9E66A14237343CB581F
:10A260002BB910680123B34020EA03031360A36CE9
:10A27000E362C3F10500A0611068012404FA03F64B
:10A2800030431060142000FB03102946FEF781FDC7
:10A29000204670BD100A002094090020640A0020A6
:10A2A000044B1A681AB11968CA6C0132CA6418687A
:10A2B000704700BF100A002070B5174C06460D46C7
:10A2C000FEF7FEFD23681B6D7BB92268012182F831
:10A2D000541055B12846FFF765FA104B4FF08052E5
:10A2E0001A60BFF34F8FBFF36F8FFEF70BFEFEF7C1
:10A2F000E7FD2268084B156D2DB11B680EB10022D9
:10A3000000E06A1E1A652368002283F85420FEF7D5
:10A31000F9FD284670BD00BF100A002004ED00E0E2
:10A32000F8B50F4616461D46044640B94FF02003C7
:10A3300083F31188BFF36F8FBFF34F8FFEE7FEF7F4
:10A34000BFFD0DB1236D2B6094F854500223721E93
:10A35000EDB284F85430032A0DD8DFE802F002058C
:10A360000B09216D0F4305E0236D0133236502E0E6
:10A37000022D30D02765012D01D001252CE0261DAE
:10A380003046FEF72AFD1649E26A0B6805FA02F02C
:10A3900003430B60134B142000FB02303146FEF7E1
:10A3A000F8FCA36A43B14FF0200383F31188BFF395
:10A3B0006F8FBFF34F8FFEE70B4BE26A1B68DB6AC0
:10A3C0009A42DAD9094B4FF080521A60BFF34F8F8F
:10A3D000BFF36F8F00E00025FEF794FD2846F8BD1F
:10A3E000640A002094090020100A002004ED00E017
:10A3F0002DE9F0410E46044640B94FF0200383F3A7
:10A400001188BFF36F8FBFF34F8FFEE7FEF762FE39
:10A41000EFF311874FF0200383F31188BFF36F8FA1
:10A42000BFF34F8F022394F8545084F85430236DB7
:10A43000EDB20133012D23652FD1A36A43B14FF053
:10A44000200383F31188BFF36F8FBFF34F8FFEE7B5
:10A45000144B1B6883B904F104084046FEF7BDFCA9
:10A460001149E26A0B6895401D43104B0D601420A2
:10A4700000FB0230414602E00D4804F11801FEF7EE
:10A4800088FC0C4BE26A1B68DB6A9A4205D90123FF
:10A490000EB1336001E0084A136087F31188BDE80C
:10A4A000F08100BF74090020640A00209409002094
:10A4B000140A0020100A0020680A0020F8B50F4C8A
:10A4C000FEF7FEFC2568ADB90D4F0E4E3846FEF77F
:10A4D00052FC3046FEF74FFC0B4B1F600B4B0A2023
:10A4E00010212A461E60FEF7E3FE206010B10849E5
:10A4F000FFF7F4F8BDE8F840FEF704BD9C0A002021
:10A50000700A0020840A00206C0A0020A00A0020A3
:10A51000C509000810B5044691424160206105D884
:10A52000D21A83699A420CD2074B04E09A4201D2B4
:10A53000994206D2054B1868211DFEF736FC002013
:10A5400010BD012010BD00BFA00A00206C0A002031
:10A5500007B5FFF7B3FF0D4B1B685BB104230093F6
:10A560000B4B01930B480C494FF482720023FFF709
:10A5700061F940B94FF0200383F31188BFF36F8F67
:10A58000BFF34F8FFEE703B05DF804FB9C0A002089
:10A59000A40A002069A60008CA09000830B50546CB
:10A5A00085B040B94FF0200383F31188BFF36F8F5C
:10A5B000BFF34F8FFEE70E4C2068B8B105298DE838
:10A5C00026000EDCFFF7C6FD022818BF0022206817
:10A5D00008BF089A69460CBF00231346FEF790FE99
:10A5E00004E01A4669460023FEF74AFF05B030BD75
:10A5F0009C0A0020F7B51A4D2B681A684AB3DB682D
:10A60000DC681E68271D3846FEF7E7FB636A2046B4
:10A610009847E369012BEED1A3693344B34206D9CD
:10A620006360246128683946FEF7BFFBE3E7002139
:10A630000091204632460B46FFF7B0FF0028DAD1E2
:10A640004FF0200383F31188BFF36F8FBFF34F8F59
:10A65000FEE7044A11682960136003B0F0BD00BF33
:10A660006C0A0020A00A00202DE9F04387B0DFF833
:10A67000B491D9F800301C68B4FA84F4640914B9B0
:10A68000DB681F6800E00027624DFFF72DFAFFF737
:10A6900033FA2B68984280462E4603D2FFF7AAFF72
:10A6A000012300E00023C5F80080002B45D154BBF6
:10A6B00047452FD8FFF7B0FAD9F80030DB68DD68DE
:10A6C000281DFEF78AFBEB69012B18D1A9692846E2
:10A6D000394442463B46FFF71DFF80B100942846AF
:10A6E00021463A462346FFF759FF40B94FF0200371
:10A6F00083F31188BFF36F8FBFF34F8FFEE76B6A51
:10A700002846984726E0444B1B681C68B4FA84F23C
:10A71000520900E02246414BC8EB07011868FEF7DA
:10A72000EFFFFFF779FAA8B93D4B4FF080521A605E
:10A73000BFF34F8FBFF36F8F0CE0FFF76DFA09E0A7
:10A74000029B002B03DA04980599039B9847029B10
:10A75000002B09DA314B0022186802A91346FEF7D4
:10A76000EFFE0028ECD182E7049C636913B1201D41
:10A77000FEF733FBFFF7C0F933689842054601D274
:10A78000FFF738FF029A3560092AE3D80123934086
:10A7900013F404772BD113F0C70F05D19B06D9D53D
:10A7A0002046FEF7DBFAD5E7039BA1692046194452
:10A7B0002A46FFF7AFFE0028CCD0636A20469847B0
:10A7C000E369012BC6D1A269039B00971A44204676
:10A7D00039463B46FFF7E2FE0028BBD14FF020038D
:10A7E00083F31188BFF36F8FBFF34F8FFEE7039999
:10A7F000A16141B94FF0200383F31188BFF36F8F3C
:10A80000BFF34F8FFEE7204629442A462B46FFF729
:10A8100081FE9FE7980A0020A00A00209C0A0020E1
:10A8200004ED00E06C0A0020704710B5044601F00A
:10A830006BFE204610BD00002DE9F041054686B0B4
:10A840002748FDF767FD002301AE26F8130001330A
:10A850000A2BF9D100274FF0FF080DF11603002451
:10A8600033F8020D58800444B342A4B2F8D11C4816
:10A87000FDF750FD0444ADF80400A4B20A20B4FB77
:10A88000F0F040450AD297280AD9C0EB0803032B01
:10A8900008DD0F2F06D80137FFB205E0404603E080
:10A8A000972001E0804600276930C0B207EE900A89
:10A8B0009FED0C7A0A48F8EEE77AC7EE877AFCEE4D
:10A8C000E77A17EE903A6B72FDF71FFD9FED060ACF
:10A8D000FEF7D2F901462846FEF725FABDE700BF8C
:10A8E00000200140B81E853F0000C84210B5044654
:10A8F000FEF720FA044B2360642363720348FDF7DC
:10A9000004FD204610BD00BFE809000800200140FA
:10A91000407A7047704710B5044601F0F5FD2046B7
:10A9200010BD000070B50446FEF704FA0A4B236020
:10A93000002323610120FEF791FD04F11805E0607A
:10A9400004F130060A2001F0D7FD45F8040FB542A6
:10A95000F8D1204670BD00BF400A0008F0B5CE5CBB
:10A960009A421CD21446085DB04201EB040E02D29A
:10A970000134E4B2F7E72246CD5CB54201EB0307B0
:10A9800002D9013BDBB2F7E7A84202D10134E2B2BF
:10A99000E6E79C423CBF8EF800503870E0E718466E
:10A9A000F0BD2DE9F0419DF8188007460D4614468C
:10A9B0001E46B44202D1285DBDE8F08133463846D8
:10A9C00029462246FFF7CAFFC4F101030344DBB264
:10A9D000434502D1285CBDE8F081984533BF00F1C2
:10A9E000FF300130C3EB0803C6B224BFC4B25FFA24
:10A9F00083F8DEE7144B10B533F81230FF2B1CBF81
:10AA0000A3F5FA73382286B018BF93FBF2F30C4615
:10AA10000B70002303A9E25C5A5401330A2BF9D1CD
:10AA2000052200920022FFF7BCFF04F1090212F890
:10AA3000013D5370A242FAD1C31A05330A2B88BFD5
:10AA4000107006B010BD00BFB00A0020F7B5044674
:10AA5000214800F06DFFFFF74FF804F11805019051
:10AA60002F460026F2B2204657F8041F0136FFF7A2
:10AA7000C1FF062EF6D100214FF0FF320B46E068F1
:10AA8000FEF75EFD04F1130304F1300255F8041FD4
:10AA9000097803F8011F9542F8D100210A460B46B8
:10AAA000E068FEF72DFC0D480021FDF7E4FE0C48A0
:10AAB0000021FDF7E0FE00210B4602222069FFF78E
:10AAC0002FFC9FED080AFEF7D7F801A902462046A1
:10AAD000FEF72CF9BFE700BF8C0B002000440140BB
:10AAE000001000400000484200F113030139193002
:10AAF00013F8012F01F8012F8342F9D170470000AC
:10AB000010B54FF48060FDF7C7FCC0B14FF4806012
:10AB1000FDF7D0FC5C485D4CFDF7AFFEB0F5FA7F69
:10AB200040F29F805848FDF7A8FE40F6B143984296
:10AB300000F297805448FDF7A0FE208010BD4FF42E
:10AB40000060FDF7A9FC012817D14FF40060FDF764
:10AB5000B1FC4D484D4CFDF790FEB0F5FA7F40F248
:10AB600083804948FDF789FE40F6B14398427BD87F
:10AB70004548FDF782FE608010BD4FF48050FDF720
:10AB80008BFC012816D14FF48050FDF793FC3E4812
:10AB90003E4CFDF772FEB0F5FA7F68D93A48FDF7F2
:10ABA0006CFE40F6B143984261D83748FDF765FE28
:10ABB000A08010BD4FF40050FDF76EFC012816D1A7
:10ABC0004FF40050FDF776FC2F48304CFDF755FE52
:10ABD000B0F5FA7F4ED92C48FDF74FFE40F6B14351
:10ABE000984247D82848FDF748FEE08010BD4FF452
:10ABF0008040FDF751FC012816D14FF48040FDF74D
:10AC000059FC2148214CFDF738FEB0F5FA7F34D9C4
:10AC10001D48FDF732FE40F6B14398422DD81A4840
:10AC2000FDF72BFE208110BD4FF40040FDF734FCF2
:10AC3000012827D14FF40040FDF73CFC1248134C8B
:10AC4000FDF71BFEB0F5FA7F1AD90F48FDF715FE88
:10AC500040F6B143984213D80B48FDF70EFE6081D1
:10AC600010BDFF23238010BDFF23638010BDFF2391
:10AC7000A38010BDFF23E38010BDFF23238110BDFF
:10AC8000FF23638110BD00BF00100040B00A002008
:10AC9000704710B5044601F037FC204610BD000097
:10ACA00073B5124C05462668FFF74EFA0023306153
:10ACB0000093ADF804304FF0FF310120FFF7FCFAAC
:10ACC00020686946FFF710FF00231DF803200E2AB5
:10ACD00006D8074B01216972186800F011FFEAE7F6
:10ACE00001330022062B6A72EFD1E4E7AC0A0020A0
:10ACF000900B002010B50446FEF71CF8024B2360B1
:10AD000000236372204610BD600A0008407A704735
:10AD1000704710B5044601F0F7FB204610BD000057
:10AD200038B50446FEF706F8114B23600120FEF704
:10AD300095FB104BE36100250F4B23626061A56119
:10AD4000042001F0D9FBE060042001F0D5FB0123D1
:10AD5000206184F83A5084F8395084F83B3084F804
:10AD6000385084F83C3084F83D50204638BD00BF50
:10AD7000A00A0008280B0020C80A002007EE901A3D
:10AD800010B5012480F8394080F83A40B8EE670ADF
:10AD9000FDF772FF01462046BDE81040FFF78CBA70
:10ADA00013B590F83A30019104465BB1806960B107
:10ADB00001A9FFF71DFB002384F83A30012384F832
:10ADC0003B3002E0012380F83A3002B010BD0000B1
:10ADD00090F8393010B5044633B105484FF480512E
:10ADE000FDF7AEFB002300E0012384F8393010BDED
:10ADF00000040240D1ED007AD1ED015ADFED2A6A5C
:10AE0000B5EE006AB0EE677AA5EE867A2DE9F04FCE
:10AE100027EE267ADFED256A87EE267A85B002AD29
:10AE2000934602F1040AE5EEC67A8DED027A9FEDB3
:10AE3000207A67EE877AC7EEA67ACDED037AB5EC75
:10AE4000017AFDEEC77A17EE100ACDED017A02F015
:10AE500037FDBDF80440804620B2894602F01EFD51
:10AE6000002206460F46134B4046494602F0C8FBF7
:10AE700032463B4602F0ECFD08B101340BE0002203
:10AE80000C4B4046494602F0BDFB32463B4602F0C1
:10AE9000D5FD00B1013CABF800400BF1020BD345EE
:10AEA000CDD105B0BDE8F08FE17A64C03199AA3DFB
:10AEB000E17A64400000E03FF8B53C4D2DED028B97
:10AEC000101F1C4604322E4650F8043F0BB90B6885
:10AED000036051F8047B03689FED357AFB1A07EE97
:10AEE000903AF8EEE77A904267EE877AE5EC017ADD
:10AEF0000760E9D196ED007A96ED018ADFED2D6AC3
:10AF00002D4B77EE487A67EEA67AF2EE046AF4EEFD
:10AF1000E67AF1EE10FAC3ED007A43D5FAEE046A50
:10AF2000F4EEE67AF1EE10FA3CDD37EE087A9FEDAA
:10AF3000238A234B27EE087AB6EE008A27EE088A8A
:10AF400094ED027A83ED008A77EE877A9FED1D7A81
:10AF5000F4EEC77AF1EE10FA1D4602DB77EEC77AFF
:10AF600008E0DFED196AF4EEE67AF1EE10FA98BF28
:10AF700077EE877AC4ED027A94ED020AFDF7ACF819
:10AF8000D4ED017AE8EE007A94ED020AC4ED017A7C
:10AF900095ED008AFDF762F8D4ED007AE8EE007ACC
:10AFA000C4ED007ABDEC028BF8BD00BFC00A0020E2
:10AFB00045F5D63A31992A3E4C0B00203199AA3DED
:10AFC000240B0020DB0FC940DB0FC9C00346002261
:10AFD00090F83D0083F83D2070470346002290F82A
:10AFE0003C0083F83C20704710B5013900F1230381
:10AFF00000F12B0211F8014F03F8014F9342F9D1F0
:10B00000012380F8383010BD00F12B0301393730AF
:10B0100013F8012F01F8012F8342F9D1704770B561
:10B0200000EB810604460022B06902230D4600F0C1
:10B03000E7FE20460421FFF7A1FEB06929460D2254
:10B04000012300F0DDFE20460421FFF797FEB069E2
:10B0500029460C22C82300F0D3FE20460421FFF726
:10B060008DFEB06929460E22002300F0C9FE20465D
:10B070000421FFF783FEB06929460A2240F2DC531F
:10B0800000F0BEFE20460421FFF778FEB069294695
:10B09000092242F2107300F0B3FE20460421FFF7AC
:10B0A0006DFEB06929460B22642300F0A9FE2046FC
:10B0B0000421FFF763FEB06929461522E62300F05C
:10B0C0009FFE20460421FFF759FEB069294613224E
:10B0D00040F6C41300F094FE20460421FFF74EFE14
:10B0E000B069294614224FF4FA6300F089FE204625
:10B0F0000421FFF743FEB06929461D22002300F01A
:10B100007FFE20460421FFF739FEB069294603225D
:10B11000002300F075FE20460421FFF72FFEB069E2
:10B1200029464322022300F051FE20460421BDE8B7
:10B130007040FFF723BE00002DE9F04100258CB0E0
:10B14000044629460C2209A88DF803500195039561
:10B1500004950595069503F099FF0123C648C74954
:10B16000C74A00F0BDFFC448C4494FF4805201F003
:10B1700071F80123C348C449C44A00F0B1FF4FF439
:10B180008052C048BD4901F065F8C148BA4900F095
:10B1900003FEBC49BF4800F0FFFDFEF7D5FF9FED61
:10B1A000BE0AA061FDF768FDFEF7FAFD2046012109
:10B1B000FFF735FF20460221FFF731FF84F83C50AE
:10B1C0004326B1EE000AFDF757FD01460120FFF7C7
:10B1D00073F894F83B80B8F1000F00F0298194F8DF
:10B1E0003850002D00F0848000252B4629464FF072
:10B1F000FF3284F838506069FEF7A2F904F12401A7
:10B20000082207A803F0A8FE29462A462B466069B3
:10B21000FEF776F89DED077AA04BF7EE007AB4EED4
:10B22000E77AF1EE10FA1868C8BFCDED077AFFF79C
:10B230006DFDDDED077A002800F06281F5EEC07A41
:10B24000F1EE10FA40F35C81954B0121186800F093
:10B2500057FC00230793204607A901AAFFF7CAFD60
:10B260008B4801210022032300F0CAFD02210022A5
:10B270000323874800F0C4FDB1EE000AFDF7FCFC93
:10B2800001460120FFF718F80025AEB280480121E1
:10B290000222334600F0B4FD02217E480A463346BE
:10B2A00000F0AEFDE62D0BD17948012102220023EA
:10B2B00000F0A6FD022177480A46002300F0A0FD19
:10B2C000B1EE040AFDF7EAFC01462046FDF72BFD2E
:10B2D0006F4801210022022300F092FD02216C48F8
:10B2E00000220B46013500F08BFDE72DCDD19DE00E
:10B2F0006748E1680DF1030200F0AEFD6548216981
:10B300000DF1030200F0A8FD1D2E84F83B5084F8D7
:10B31000395084F83A5044D1E1685D4800F08BFD23
:10B32000216905465A4800F086FD05B960B304F16D
:10B33000180700250135EEB231460322002357F8E5
:10B34000040F00F05DFDB1EE000AFDF795FC01462B
:10B350000120FEF7B1FF022E4FF00105EAD1504B5C
:10B3600084F83D501868294600F0CAFB9FED4D0A4D
:10B37000FDF782FCFEF714FD20462946FFF74FFE3D
:10B3800020463146FFF74BFEE069012143220223AC
:10B3900000F01CFD0221206A43220B4600F016FD3E
:10B3A0000EE7432E7FF40DAF2646F368F0699A78D6
:10B3B0008DF808201A788DF80A20DA788DF809209F
:10B3C0005B788DF80B3002A900F03BFD03A941F832
:10B3D00025000DB940420390012D06F1040601D06D
:10B3E0000125E2E7204605AA09ABFFF765FD00212C
:10B3F0000B464FF0FF326069FEF7A2F809A90C2254
:10B4000004F12C0003F0A8FD00210A460B466069F8
:10B41000FDF776FFE06929461D222B4600F0D6FC99
:10B42000206A02211D222B4600F0D0FC1D26C8E612
:10B4300001259FED1D0A84F83C50FDF71DFC0146D7
:10B440002846FEF739FF1948154F4FF40041FDF724
:10B450006FF868B3E06929464346032200F0D0FC48
:10B46000206A02210322434600F0CAFC38682946BC
:10B4700000F046FBA5E600BF500B00200004024090
:10B4800000480040E80A002000000240004C004054
:10B49000280B0020C80A002000409C45BC0A002060
:10B4A000900B00200000FA4300007A44000802409C
:10B4B0001E484FF40041FDF73BF860B99FED1C0AB0
:10B4C000FDF7DAFBFEF76CFC386800F061FB012346
:10B4D00084F83C30ECE79FED170AFDF7CDFBFEF753
:10B4E0005FFC0025204601210595FFF798FD2046C9
:10B4F00002210695FFF793FD386800F051FB60E6E6
:10B50000F5EE407AF1EE10FA06D1DDED087AF5EEAF
:10B51000407AF1EE10FA03D0074B0321186802E0DD
:10B52000054B1868022100F0EBFA94E6000802408F
:10B530000000C84200803B45900B002008B50F4832
:10B5400040F22441FDF7F2FA30B10D480021FCF73A
:10B5500020FF0A48FDF7C4FA084840F22661FDF7CB
:10B56000E5FA50B1054840F22661FDF7FEFA054BB9
:10B570001868BDE80840FFF72BBC08BD0048004034
:10B5800028600240480B002010B5084B084C186892
:10B590000021FFF705FC20460649FCF729FF20465D
:10B5A0000121BDE81040FCF7F4BE00BF480B0020AD
:10B5B000286002400088001010B5054C054920465F
:10B5C000FCF716FF20460021BDE81040FCF7E1BE65
:10B5D000586002400080001808B50F4840F224412E
:10B5E000FDF7A4FA30B10D480021FCF7D2FE0A485D
:10B5F000FDF776FA084840F22661FDF797FA50B158
:10B60000054840F22661FDF7B0FA054B1868BDE821
:10B610000840FFF7DDBB08BD004C00404060024021
:10B62000480B002010B5084B084C18680021FFF7A4
:10B63000B7FB20460649FCF7DBFE20460121BDE8AA
:10B640001040FCF7A6BE00BF480B0020406002403F
:10B650000080201010B5054C05492046FCF7C8FEB7
:10B6600020460021BDE81040FCF793BE7060024008
:10B670002080002070B5144E144C154D304600F05B
:10B6800023FC3046134E2946224601F081FD304608
:10B6900000F01AFC3046104E2946224601F078FD93
:10B6A0000E4D304600F072FB30460D4E29462246C4
:10B6B00001F06EFD304600F069FB30462946224617
:10B6C000BDE8704001F064BD500B00200000002078
:10B6D000BBBE0008E80A0020280B00207DBD000842
:10B6E000C80A00207047000070B5284E8AB00420B8
:10B6F00001210124FCF77CFF00254FF40043304674
:10B70000694600938DF804508DF806408DF8075077
:10B71000FCF7D6FE21460820FCF76AFF02A91C4868
:10B7200002948DF80C408DF80E50FCF7C9FE194AB2
:10B730001948136B2343136304A948F208030493C5
:10B740008DF814408DF81650FCF7BAFE21460420FF
:10B75000FCF74EFF4FF48043304606A906938DF860
:10B760001C408DF81E50FCF7ABFE21461020FCF764
:10B770003FFF1E230948089308A98DF824408DF83F
:10B780002650FCF79DFE0AB070BD00BF00080240C5
:10B79000000C02400038024000000240001002404D
:10B7A00010B5012186B0144C1020FCF72DFF68461F
:10B7B000FDF758F8532320466946ADF80030FDF7F1
:10B7C00013F820460121FDF75AF801212020FCF74B
:10B7D0001BFF04F5806403A8FDF744F842F2CF0391
:10B7E000204603A9ADF80C30FCF7FEFF20460121EE
:10B7F000FDF745F806B010BD001000402DE9F041FE
:10B8000001209AB00146FCF7F3FE464DDFF81C819B
:10B8100008200121FCF7F8FE0423002402260DEB8A
:10B820000301284601938DF808608DF80A408DF8D1
:10B830000940FCF745FE324628463146FCF782FEB9
:10B840004CF24F33ADF8143040464FF42F6305A946
:10B850000693ADF81640FCF7C7FFB8F800309BB26E
:10B8600043F08003A8F8003001254FF4AF63602750
:10B8700040460BA90D93ADF82C70ADF83A40ADF8E9
:10B880002E50FDF785F829461020FCF7B1FE294619
:10B890004FF48030FCF7C4FE8DF81060224E039701
:10B8A000304603A98DF812408DF81140FCF708FED0
:10B8B000304605210322FCF745FE032230460621CF
:10B8C000FCF740FEA6F550465323ADF82030304635
:10B8D0004FF47A7308A90993ADF82240FCF784FF6E
:10B8E00033889BB243F080033380304610A9ADF813
:10B8F0004070ADF84E401294ADF84250FCF7CCFFCA
:10B90000304615A9ADF85470ADF862401794ADF803
:10B910005650FCF7F9FF30462946FCF7B0FF1AB045
:10B92000BDE8F0810000024000100240000C004021
:10B9300070B5204C204E8AB02046FCF7ABFE0220AA
:10B940000121FCF755FE4FF400300121FCF768FEA1
:10B950004FF48073002500933046022369468DF82A
:10B9600004308DF80650FCF7ABFD03223046082169
:10B97000FCF7E8FD5323ADF8083020464FF6FF737F
:10B9800002A9ADF80A500393FCF72EFF6023ADF82F
:10B990001430ADF822500A230125204605A907934B
:10B9A000ADF81650FCF778FF20462946FCF767FFF4
:10B9B0000AB070BD004401400004024030B50420CC
:10B9C0008DB00121FCF714FE4FF480700121FCF7CB
:10B9D00027FE0223694601248DF80730144800949D
:10B9E00003238DF804308DF80640FCF769FD02A8AA
:10B9F000FCF73AFC0F4D4FF4403302A80393FCF7D9
:10BA00001FFC06A8FCF712FC4FF00073284606A99D
:10BA10000693FCF7E5FB2846224600230A21FCF7A3
:10BA200032FC28462146FCF725FC0DB030BD00BF96
:10BA3000000802400020014070B5102086B00121AE
:10BA4000FCF7D6FD4FF480400121FCF7E9FD06A983
:10BA50004FF47C4602230124002541F8106D1D4857
:10BA60008DF80F308DF80C508DF80E40FCF728FD46
:10BA700004200A21FCF7F8FD04200B21FCF7F4FD5B
:10BA800004200C21FCF7F0FD04200D21FCF7ECFD57
:10BA900004200E21FCF7E8FD0F210420FCF7E4FD53
:10BAA0000C2304A88DF8153004968DF814508DF8E9
:10BAB0001640FCF7B5FC282301A88DF804308DF85A
:10BAC00005408DF806408DF80740FCF753FB06B0A3
:10BAD00070BD00BF0010024002480349034A01F054
:10BAE00057BB00BF8C0B0020E5B60008000000200B
:10BAF000704710B5044600F007FD204610BD000059
:10BB00000079002830D10129184A194B02D14FF48D
:10BB10002F611EE0022904D1D0635A6922F0080285
:10BB20000EE0032904D1D0635A6942F0080216E0FE
:10BB300004290AD14FF42F61D1635A6942F00802F7
:10BB40005A615A6942F400420DE0062903D14FF4CC
:10BB5000AF61D16300E0D0635A6922F008025A61F4
:10BB60005A6922F400425A61704700BF000C00403D
:10BB70000000024010B5054B036004460321FFF7A7
:10BB8000BFFF00232371204610BD00BFE00A00085C
:10BB900010B506210446FFF7B3FF0123237110BD42
:10BBA000002202710321FFF7ABBF000010B5054C66
:10BBB000204600F015F820460349044ABDE810402D
:10BBC00001F0E6BA940B0020D1BB00080000002071
:10BBD000704710B5044600F097FC204610BD0000E9
:10BBE00010B50446FDF7A6F8074B23600421002298
:10BBF0000220FDF75DFB054B18600120FDF72EFCD0
:10BC0000034B1860204610BD100B0008A40B002049
:10BC1000A00B002070B50C4C20680D46FDF74AFDC6
:10BC200018B120680021FDF703FB29462068022295
:10BC30000023FDF765FB2068291D02220023BDE8D3
:10BC40007040FDF75DBB00BFA40B002030B52DEDAB
:10BC5000028BA3B022AB4FF07E5243F8782D0446FE
:10BC60000DAAD3ED007AB6EE007A67EE877AB0EED1
:10BC7000478A17EE901A43F8041F9342F1D10EAB96
:10BC800018AD002243F8042BAB42FAD1FDF734FF84
:10BC9000354B0190D3ED097ADFED346AF8EE677A1F
:10BCA000A3F58053C7EEA67A5B6A9BB2A3F5FF4368
:10BCB0007F3B07EE103AB8EEC77A0FABC7EE277A94
:10BCC0009FED2B7A67EE877A93ED007ACDED0E7AB1
:10BCD000B5EE407AF1EE10FACDED027A22D09DED6C
:10BCE000107AB5EE407AF1EE10FA1BD09DED117A84
:10BCF000B5EE407AF1EE10FA14D01A4605A917A84D
:10BD0000F2EC016AB1EC017A8242E6EE877AF7D171
:10BD1000DDED0D6A9DED177A27EE267AA7EE887A7B
:10BD20008DED027A029A0E922A4652F8081C42F8C9
:10BD3000041D9A42F9D10F4A47F6FF735362A2F5E8
:10BD4000806202A95362084B00225A622046FFF724
:10BD500061FF9FED090AFCF78FFF01A9024620460B
:10BD6000FCF7E4FF92E700BF0014004000401C46CF
:10BD7000823C3B3B000800400000C842704710B5C1
:10BD8000044600F0C1FB204610BD0000014B0360DB
:10BD9000704700BF400D00084160704710B5FF2399
:10BDA0001846013AD2B2FF2A08D011F8014B5C4084
:10BDB000044B1B5D43400448005DF2E743EA00206A
:10BDC00010BD00BF340C0008340B000838B50172F8
:10BDD000032100F10805417200218172C2720173D2
:10BDE0004373294606220446FFF7D8FFA0730012CA
:10BDF000E073294660680822BDE8384000F046BA82
:10BE000070B500F1080506260172C27200211A12EF
:10BE10004672817202732946324643730446FFF725
:10BE2000BDFFA0730012E073294660680822BDE8D8
:10BE3000704000F02BBA08784B7843EA002000B23B
:10BE400070474B7808781B0443EA0063C8780343C3
:10BE5000887843EA002070472DE9F34102AF0024BF
:10BE600007F8014D05460E4640683946904600F0F9
:10BE70002BFA6868394600F027FA9DF80730032B43
:10BE80000ED16868414600F01FFA98F80030E1B220
:10BE90008B420CD96868314400F016FA0134F4E79B
:10BEA000731E0436002203F8012FB342FAD16868EA
:10BEB00000F017FA02B0BDE8F081704710B50446F3
:10BEC00000F022FB204610BD024A0260002280F8EA
:10BED00038207047800D00082DE9F0439846244B28
:10BEE00085B099420C4691469DF8307006D10120EC
:10BEF0000146FCF77DFB0025012612E01D4B99420F
:10BF000006D102200121FCF773FB0A250B2608E06D
:10BF1000194B994205D104200121FCF769FB062544
:10BF20000726CDF8008000234FF00208204669461E
:10BF30008DF806308DF80480FCF7C2FA0123204604
:10BF400002A98DF80E308DF80F30CDF808908DF8DD
:10BF50000C80FCF7B5FA2046B1B23A46FCF7F2FA8B
:10BF60002046A9B23A46FCF7EDFA05B0BDE8F083E9
:10BF70000000024000040240000802402DE9F04F9A
:10BF80004E4B9942A3B082460E460DD14FF400109D
:10BF90000121FCF72DFB4FF0006B0E240C25DFF880
:10BFA0002881DFF8289120E0454B99420DD14FF4CC
:10BFB00000100121FCF71CFB4FF0006B0F240D2536
:10BFC000DFF80C81DFF80C910FE03E4B99420CD169
:10BFD0004FF480000121FCF70BFBDFF8FC80DFF859
:10BFE000FC904FF0206B4524392504A8CAF8348012
:10BFF000FCF7BEF9371D0AF1040300264FF0140CBC
:10C000004FF48062484604A90693CDF820C0CDF8CD
:10C0100004C00A9200920597079609960B960C9613
:10C020000D96CDF810B0FCF779F948460121FCF7E0
:10C03000B0F913A8FCF79CF90AF11803DDF804C065
:10C04000009A15934046402313A91693CDF85CC07F
:10C050001497189619921A961B961C96CDF84CB008
:10C06000FCF75CF9484610210122FCF7A1F98DF894
:10C0700008506DB205F1604505F56145012602A83D
:10C08000A0278DF80B60FCF775F84046102132466A
:10C0900085F80073FCF78CF98DF80C4003A864B2A6
:10C0A0008DF80F6004F16044FCF764F804F5614416
:10C0B00084F8007323B0BDE8F08F00BF0048004053
:10C0C000004C0040001401405860024028600240CB
:10C0D0007060024040600240A06402402864024058
:10C0E0002DE9F0410D4688B011461F4680461446A2
:10C0F000FFF744FF514B9D420ED1A3F5DE339C4226
:10C1000032D107230093404629464FF400624FF492
:10C110008063FFF7E1FE20E0494B9D420AD1A3F581
:10C1200074439C4229D1082300934046294680222B
:10C1300040230CE0434B9D420CD1A3F5DA339C42E3
:10C1400008D1082300934046294602220123FFF725
:10C15000C3FE09E03C4B9C4206D14FF480200121F4
:10C16000FCF752FA272614E0384B9C4208D12020D5
:10C170000121FCF755FA47260BE0334B9C42ECD0EB
:10C18000334B9C4205D14FF400200121FCF73CFACF
:10C1900034264FF4E1330C2204932046002304A9F3
:10C1A000ADF81630ADF81430ADF81A20ADF81830EF
:10C1B000ADF81C30FCF72EFC01212046FCF784FC76
:10C1C00073B203F1604303F56143A02283F80023B7
:10C1D000012503A88DF80C608DF80F50FBF7CAFFFE
:10C1E000204640F22661FCF7C0FC204640F2277151
:10C1F000FCF7BBFC204640F22551FCF7B6FC20467C
:10C2000040F22441FCF7B1FC204640F224412A468A
:10C21000FCF773FC2FB1204640F226612A46FCF75A
:10C220006CFC204640210122FCF75EFC2046802168
:10C230000122FCF759FC08B0BDE8F081000402407F
:10C240000008024000000240004800400014014085
:10C25000004C00400C4B994237B50C4615460286FF
:10C26000C16203D102200121FCF7C2F901238DF83C
:10C27000043020460023694600958DF80630FCF70F
:10C280001FF903B030BD00BF0004024070B5044682
:10C29000406B0D461646FCF787F818B1606B00211D
:10C2A000FCF777F8E06A218EFCF748F9606BC36809
:10C2B000AB4218BFC5603146FCF774F8606B0121D2
:10C2C000BDE87040FCF765B890F8383003441B793E
:10C2D0000B7090F838300133DBB280F838301846F4
:10C2E0007047002380F838307047704710B5044617
:10C2F00000F00AF9204610BDF8B50446FDF724FF0A
:10C300003949E060394A3A480023FFF7E9FE384DE1
:10C31000384F01204FF0FF31FDF7CEFF2C79012C73
:10C320002E4602D111232B762FE0072C07D1324B5A
:10C3300069791868FFF7E4FB00232B7624E0082CCA
:10C3400005D12E4B1868FEF7E3FA28761CE00A2C7C
:10C3500007D12B4B05F118011868FEF7C5FB062421
:10C3600013E0092C04D13868691DFEF73DFE0BE08F
:10C370000B2C06D1386805F11801FEF745FE0C2498
:10C3800003E0FF232B766B7601243868FEF725FE49
:10C3900005463868FEF71AFE10B145F00205EDB209
:10C3A000184B1868FEF7B2FC10B145F00405EDB269
:10C3B000331900211D76631CDBB2F218117604F1EB
:10C3C000180211493244F51811F8010F2F7E9142DD
:10C3D00038442876F7D10648A21C00F11801D2B2E1
:10C3E000FFF754FF93E700BF00080240001401402C
:10C3F000A80B0020480B0020900B0020A80A00206A
:10C40000AC0A0020BC0A0020BF0B002010B5044677
:10C41000FCF790FC024B23600023E360204610BD34
:10C42000900D000808B5084840F22441FCF77EFB57
:10C4300040B106480021FBF7ACFF0348BDE80840C7
:10C44000FCF74EBB08BD00BF001401402864024049
:10C4500007B502A9002341F8043D0D4B1B68D868BD
:10C46000FDF7C6FF0B480C49FBF7C2FF0948012145
:10C47000FBF78FFF019B3BB1084B4FF080521A60D6
:10C48000BFF34F8FBFF36F8F03B05DF804FB00BFA6
:10C49000E40B0020286402400088001004ED00E056
:10C4A00010B5054C05492046FBF7A2FF20460021A8
:10C4B000BDE81040FBF76DBFA06402400080202063
:10C4C00010B5054C2046FFF7FFFC20460349044AFF
:10C4D000BDE8104000F05CBEA80B0020BBBE000809
:10C4E00000000020FEE7FEE7024A136801331360F4
:10C4F000FCF728BCEC0B0020024A136801331360E0
:10C50000FCF720BCF00B0020024A1368013B1360CB
:10C51000FCF724BCEC0B0020044B1968024609B957
:10C5200003491960186802441A607047E80B00203C
:10C53000401400200A490B4A0B4B9B1A03DD043BB5
:10C54000C858D050FBDC09488047094809490A4AC5
:10C55000914202D041F8040BFAE708480047000076
:10C56000A4FD00080000002084080020798B00084A
:10C5700000000000880800204014002039C6000890
:10C58000FEE7FEE7FEE7FEE7FEE7FEE7FEE7FEE783
:10C59000FEE7FEE7FEE7FEE7FEE7FEE7FEE7FEE773
:10C5A000FEE7FEE7FEE7FEE7FEE7FEE7FEE7FEE763
:10C5B000FEE7FEE7FEE7FEE7FEE7FEE7FEE7FEE753
:10C5C000FEE7FEE7FEE7FEE7FEE7FEE7FEE7FEE743
:10C5D000FEE7FEE7FEE7FEE7FEE7FEE7FEE7FEE733
:10C5E000FEE7FEE7FEE7FEE7FEE7FEE7FEE7FEE723
:10C5F000FEE7FEE7FEE7FEE7FEE7FEE7FEE7FEE713
:10C60000FEE7FEE7FEE7FEE7FEE7FEE7FEE7FEE702
:10C61000FEE7FEE7FEE7FEE7FEE7FEE7FEE7FEE7F2
:10C62000FEE7FEE7FEE7FEE7FEE7FEE7FEE7FEE7E2
:10C63000FEE7FEE7FEE7FEE72DE9F047FCF79CFA90
:10C640004FF44070FBF78CFD0820FFF74DFF0446C8
:10C65000FFF790FA3B4D0C202C60FFF745FFA846F2
:10C660000446FEF743F9384F34203C60FFF73CFFA7
:10C670000446FEF757F9354E10203460FFF734FFBB
:10C680000546FFF7C3FE324C40202560FFF72CFF24
:10C690008146FEF745FB2F4D0C20C5F80090FFF7B3
:10C6A00023FF8146FEF726FBDFF8C8A02A48CAF818
:10C6B0000090FFF719F82848FFF7A0F82648FFF781
:10C6C0007DF92548FFF7B8F92348FFF769F8D8F84E
:10C6D00000000321FFF714FA3868204B4FF48071F3
:10C6E0000222FCF7F7FA30681D4B4FF40071032269
:10C6F000FCF7F0FA28681B4B4FF480610422FCF72A
:10C70000E9FA2068184B4FF400710422FCF7E2FAB2
:10C710004FF400710422154BDAF80000FCF7DAFA46
:10C720001348FCF7A6FA0020BDE8F087FFE7204693
:10C73000FFF7EAFE00F026F8F9E72846F8E7FFE7FA
:10C740004846F5E7900B0020A80A0020AC0A00201C
:10C75000E40B0020480B00208C0B0020C80D0008C3
:10C76000D50D0008E00D0008EE0D0008FC0D0008D6
:10C77000F40B0020BC0A00200148FCF779BA00BF86
:10C78000F40B00201EB400F08DF81EBC01F02AFF4F
:10C79000F0B50278472A83B00E461F461AD0002310
:10C7A000254C0193236820469B68984780B1019BE4
:10C7B0001B68019302253368214630461C6901AA93
:10C7C0000123A04710B1019B3B60284603B0F0BD98
:10C7D0000125F0E743784E2BE1D18378552BDED14C
:10C7E000C378432B19D0C378432BD8D10379432B7B
:10C7F000D5D143792B2BD2D183792B2BCFD1C379B0
:10C80000012BCCD804D050F8204C58300190C9E707
:10C8100050F8200C50F8784CF8E70379462BE2D119
:10C8200043794F2BDFD18379522BDCD1C379002B95
:10C83000D9D10193014CB5E74C0F0008F40E000864
:10C8400010B5044600F0A0FC2378472BA4F1200289
:10C8500004D0836823BB8260012010BD63784E2B17
:10C86000F7D1A378552BF4D1E378432BF1D1237979
:10C87000432BEED163792B2BEBD1A3792B2BE8D172
:10C88000E379012BE5D854F8043C0133012B44F83B
:10C89000043CE1D1836844F8083C8260012010BD6B
:10C8A00000F04CF808B500F06FFC836883B393F890
:10C8B0002020472A04D00022826003F1200008BD16
:10C8C00093F821204E2AF6D193F82220552AF2D14E
:10C8D00093F82320432AEED193F82420432AEAD167
:10C8E00093F825202B2AE6D193F826202B2AE2D193
:10C8F00093F82720012ADED8DA69013ADA61002AA2
:10C90000DBD19A69826000229A6103F1200008BDA0
:10C9100000F014F808B5804702F06AF800F036F825
:10C9200002F066F80D46044600F076F8013501D0B5
:10C93000FFF728FF204600F0FBFC00BF08B5034BC3
:10C940001868BFF35F8FFFF7E5FF00BF20000020EE
:10C9500008B58047FFF7F2FF08B5034B1868BFF32F
:10C960005F8FFFF7F5FF00BF1C000020024B186827
:10C97000BFF35F8F704700BF20000020024B186894
:10C98000BFF35F8F704700BF1C00002038B504461E
:10C9900000F0FAFB217803684729A4F1200205D0B2
:10C9A000002B31D11C460260204638BD61784E29EB
:10C9B000F6D1A1785529F3D1E1784329F0D1217935
:10C9C0004329EDD161792B29EAD1A1792B29E7D12E
:10C9D000E1790129E4D854F80C5C002D11DB013514
:10C9E000416844F80C5C934201F1FF3141601CBF87
:10C9F00044F8103C02602046646A01F011FA2046B7
:10CA000038BDC5F10105EBE7FFF798FF013101D013
:10CA1000FFF7B8FE00F08CFC08B500F0B1FB024651
:10CA2000006800283DD090F82030472B06D0002326
:10CA300013602030BDE8084001F0F4B990F82130CF
:10CA40004E2BF4D190F82230552BF0D190F82330B2
:10CA5000432BECD190F82430432BE8D190F82530CB
:10CA60002B2BE4D190F826302B2BE0D190F82730F7
:10CA7000012BDCD84369002B05DB013B08D05A1C95
:10CA80000DD0436108BD0133FBD101691160F8E7A6
:10CA9000036913602030BDE8084001F0C3B9FFF717
:10CAA0004DFF08BD70B5036884B000249E690094F2
:10CAB00010231546029312688DF804406B460394C8
:10CAC000B0479DF8043003F00603062B03BF009B1C
:10CAD0002B600120204604B070BD00BF009890423A
:10CAE0000CBF06200120704710B5034B03600446BD
:10CAF00000F088FC204610BD180E000810B5054B4C
:10CB00000360044600F07EFC2046FFF7FDFC204653
:10CB100010BD00BF180E000838B515461C4600F0C1
